:100000000C9434000C9494000C9446000C9446001C
:100010000C9446000C9446000C9446000C94460048
:100020000C9446000C9446000C9446000C94460038
:100030000C9446000C9446000C9446000C94460028
:100040000C944A000C9446000C9446000C94460014
:100050000C9446000C9446000C9446000C94460008
:100060000C9446000C94460011241FBECFEFD8E03C
:10007000DEBFCDBF21E0A0E0B1E001C01D92A13103
:10008000B207E1F70E94E1000C944D010C940000CE
:100090002D9A08951F920F920FB60F9211242F934D
:1000A0003F938F939F93AF93BF9380910D01909156
:1000B0000E01A0910F01B091100130910C0123E0CD
:1000C000230F2D3758F50196A11DB11D20930C016A
:1000D00080930D0190930E01A0930F01B093100136
:1000E0008091080190910901A0910A01B0910B0142
:1000F0000196A11DB11D8093080190930901A09361
:100100000A01B0930B01BF91AF919F918F913F91E5
:100110002F910F900FBE0F901F90189526E8230F78
:100120000296A11DB11DD2CF1F920F920FB60F9252
:1001300011240F931F932F933F934F935F936F93CC
:100140007F938F939F93AF93BF932FB7F894809132
:100150000D0190910E01A0910F01B09110012FBFE0
:1001600040910101509102016091030170910401DD
:100170008C019D01041B150B260B370BB901A8013F
:10018000453F51406105710558F021E0209305017C
:100190008093010190930201A0930301B0930401A5
:1001A000BF91AF919F918F917F916F915F914F918F
:1001B0003F912F911F910F910F900FBE0F901F90A5
:1001C0001895789484B5826084BD84B5816084BDBF
:1001D00085B5826085BD85B5816085BD80916E00E5
:1001E000816080936E001092810080918100826016
:1001F0008093810080918100816080938100809153
:1002000080008160809380008091B1008460809341
:10021000B1008091B00081608093B00080917A003D
:10022000846080937A0080917A00826080937A0063
:1002300080917A00816080937A0080917A00806852
:1002400080937A001092C10052985A9A259A809110
:100250006900826080936900809169008E7F80933D
:100260006900E89A789488E490E09093070180937D
:100270000601C0E0D0E0E0910601F091070130975F
:1002800039F080910501882319F010920501099534
:0E029000209789F30E940000EECFF894FFCF74
:00000001FF
