:100000000C9434000C94E1000C9451000C945100B9
:100010000C9451000C9451000C9451000C9451001C
:100020000C9451000C9451000C9451000C9451000C
:100030000C9451000C9451000C9451000C945100FC
:100040000C9497000C9451000C9451000C945100A6
:100050000C9451000C9451000C9451000C945100DC
:100060000C9451000C94510011241FBECFEFD8E026
:10007000DEBFCDBF11E0A0E0B1E0E8EAF3E002C0EE
:1000800005900D92A230B107D9F721E0A2E0B1E0CE
:1000900001C01D92A731B207E1F70E9439010C940B
:1000A000D2010C9400008093010108950F931F93D7
:1000B000AB01BC012FB7F89480911301909114010A
:1000C000A0911501B09116012FBF00910701109169
:1000D00008012091090130910A01801B910BA20BAC
:1000E000B30B84179507A607B707E0F02FB7F8946E
:1000F0008091130190911401A0911501B091160106
:100100002FBF8093070190930801A0930901B0933A
:100110000A018091060191E08927809306018823D6
:1001200021F02D9A1F910F9108952D98FBCF1F92CA
:100130000F920FB60F9211242F933F938F939F939B
:10014000AF93BF938091130190911401A091150179
:10015000B09116013091120123E0230F2D3758F58D
:100160000196A11DB11D209312018093130190935C
:100170001401A0931501B093160180910E01909186
:100180000F01A0911001B09111010196A11DB11DA7
:1001900080930E0190930F01A0931001B093110171
:1001A000BF91AF919F918F913F912F910F900FBE73
:1001B0000F901F90189526E8230F0296A11DB11DE0
:1001C000D2CF1F920F920FB60F9211240F931F934D
:1001D0002F933F934F935F936F937F938F939F934F
:1001E000AF93BF938FB7F8944091130150911401CE
:1001F00060911501709116018FBF8091020190915D
:100200000301A0910401B09105018A019B01081B23
:10021000190B2A0B3B0BD901C801893C9105A1059B
:10022000B10590F0809100018630F8F081E0809374
:100230000001409302015093030160930401709305
:10024000050181E080930B01BF91AF919F918F9148
:100250007F916F915F914F913F912F911F910F91DE
:100260000F900FBE0F901F901895809100018F5F27
:10027000DECF789484B5826084BD84B5816084BD0E
:1002800085B5826085BD85B5816085BD80916E0034
:10029000816080936E001092810080918100826065
:1002A00080938100809181008160809381008091A2
:1002B00080008160809380008091B1008460809391
:1002C000B1008091B00081608093B00080917A008D
:1002D000846080937A0080917A00826080937A00B3
:1002E00080917A00816080937A0080917A008068A2
:1002F00080937A001092C100259A83E590E0909354
:100300000D0180930C0152985A9A80916900826085
:1003100080936900809169008E7F80936900E89ADC
:100320007894C0E0D0E011E0E0910C01F0910D0173
:10033000309749F080910B01882329F010920B012E
:10034000809100010995809101018330F9F038F422
:10035000813061F08230A9F0109301010DC0853029
:10036000F9F0C8F08630C1F72D9806C068EE73E04A
:1003700080E090E00E9456002097B1F20E940000B9
:10038000D3CF64EF71E080E090E0F4CF6AEF70E0EB
:1003900080E090E0EFCF6CED75E080E090E0EACF98
:0803A0002D9AEACFF894FFCF7B
:0203A800010151
:00000001FF
